:100000000C9434000C9449000C9449000C94490061
:100010000C9449000C9449000C9449000C9449003C
:100020000C9449000C9449000C9449000C9449002C
:100030000C9449000C9449000C9449000C9449001C
:100040000C9449000C9449000C9449000C9449000C
:100050000C9449000C9449000C9449000C944900FC
:100060000C9449000C94490011241FBECFEFD8E036
:10007000DEBFCDBF11E0A0E0B1E0E0EAF7E002C0F2
:1000800005900D92AA30B107D9F70E9463000C9435
:10009000CE030C94000080EC80937C0087E8809372
:1000A0007A000895EAE7F0E080818064808380919F
:1000B0007A0084FFFCCF08958FEF8AB98EE184B96E
:1000C00082E088B90895CF93DF93CDB7DEB7669706
:1000D0000FB6F894DEBF0FBECDBF8AE0E0E0F1E0DE
:1000E000DE011D9601900D928A95E1F701E719E373
:1000F0000E944B000E945C000E9452008091780098
:100100006091790070E0762F6627682B80E090E0A0
:100110000E94AB022DEC3CEC4CE85FE30E943903FB
:100120002FE632E143E85FE30E94030220E030E87B
:100130004BE354E40E94960120E030E040E251E4B9
:100140000E94030220E030E048EC51E40E94970155
:100150004B015C0120E030E040E251E40E943903B1
:100160000E9475027B0120E030E040E151E4C501CE
:10017000B4010E94390320E030E040EA50E40E94DC
:10018000030220E030E040E052E40E94970120E0CA
:1001900030E040E251E40E9439030E9475026B0195
:1001A000E4E6F0E0CB01BF010E94A603CB01BF0152
:1001B0000E94A6039A8389832AE030E0C601B90130
:1001C0000E94A6036C01CB01B9010E94A6039C8387
:1001D0008B83DE82CD82C701BF010E94A603CB01C3
:1001E000BF010E94A60398878F83C701B9010E94AF
:1001F000A603FC01CB01B9010E94A6039A87898757
:10020000FC87EB87319B46C090E08CC0EF81F8857E
:100210002DE030E02C0F3D1FE20FF31F80818BB9E2
:100220008DEF85B9EFEDFEE23197F1F700C00000E8
:10023000E985FA852DE030E02C0F3D1FE20FF31F1A
:1002400080818BB98BB180688BB98BEF85B9EFED6D
:10025000FEE23197F1F700C00000EB85FC852DE050
:1002600030E02C0F3D1FE20FF31F80818BB987EF29
:1002700085B9EFEDFEE23197F1F700C000001BB940
:100280008FEE85B9EFEDFEE23197F1F700C0000087
:100290009F5F01C090E0943608F4B8CF2DCFE9817C
:1002A000FA812DE030E02C0F3D1FE20FF31F80811B
:1002B0008BB98DEF85B9EFEDFEE23197F1F700C014
:1002C0000000EB81FC812DE030E02C0F3D1FE20FA0
:1002D000F31F80818BB98BB180688BB98BEF85B9A7
:1002E000EFEDFEE23197F1F700C00000ED81FE81F5
:1002F0002DE030E02C0F3D1FE20FF31F80818BB902
:1003000087EF85B9EFEDFEE23197F1F700C000000D
:100310000BB98FEE85B9EFEDFEE23197F1F700C032
:1003200000009F5F943608F4BACFE6CE5058BB2742
:10033000AA270E94AE010C94FF020E94F10238F03D
:100340000E94F80220F039F49F3F19F426F40C942F
:10035000EE020EF4E095E7FB0C94E802E92F0E9410
:10036000100358F3BA17620773078407950720F044
:1003700079F4A6F50C9432030EF4E0950B2EBA2F07
:10038000A02D0B01B90190010C01CA01A00111249B
:10039000FF27591B99F0593F50F4503E68F11A1647
:1003A000F040A22F232F342F4427585FF3CF4695D8
:1003B00037952795A795F0405395C9F77EF41F16FA
:1003C000BA0B620B730B840BBAF09150A1F0FF0FC4
:1003D000BB1F661F771F881FC2F70EC0BA0F621FB0
:1003E000731F841F48F4879577956795B795F795A0
:1003F0009E3F08F0B0CF9395880F08F09927EE0F35
:100400009795879508950E9417020C94FF020E9409
:10041000F80258F00E94F10240F029F45F3F29F001
:100420000C94E80251110C9433030C94EE020E94D8
:10043000100368F39923B1F3552391F3951B550BE2
:10044000BB27AA2762177307840738F09F5F5F4FA7
:10045000220F331F441FAA1FA9F335D00E2E3AF0E6
:10046000E0E832D091505040E695001CCAF72BD0FE
:10047000FE2F29D0660F771F881FBB1F261737074F
:100480004807AB07B0E809F0BB0B802DBF01FF2781
:1004900093585F4F3AF09E3F510578F00C94E80274
:1004A0000C9433035F3FE4F3983ED4F3869577953D
:1004B0006795B795F7959F5FC9F7880F911D96953A
:1004C000879597F90895E1E0660F771F881FBB1F96
:1004D000621773078407BA0720F0621B730B840B43
:1004E000BA0BEE1F88F7E09508950E947C0268948D
:1004F000B1110C94330308950E94180388F09F579C
:1005000098F0B92F9927B751B0F0E1F0660F771F37
:10051000881F991F1AF0BA95C9F714C0B13091F02D
:100520000E943203B1E008950C943203672F782FB4
:100530008827B85F39F0B93FCCF3869577956795F2
:10054000B395D9F73EF490958095709561957F4F5E
:100550008F4F9F4F0895E89409C097FB3EF4909504
:100560008095709561957F4F8F4F9F4F9923A9F08C
:10057000F92F96E9BB279395F6958795779567951B
:10058000B795F111F8CFFAF4BB0F11F460FF1BC05F
:100590006F5F7F4F8F4F9F4F16C0882311F096E9F2
:1005A00011C0772321F09EE8872F762F05C06623A0
:1005B00071F096E8862F70E060E02AF09A95660F59
:1005C000771F881FDAF7880F9695879597F9089512
:1005D00097F99F6780E870E060E008959FEF80ECF6
:1005E000089500240A941616170618060906089599
:1005F00000240A9412161306140605060895092EFF
:100600000394000C11F4882352F0BB0F40F4BF2B6D
:1006100011F460FF04C06F5F7F4F8F4F9F4F0895AD
:1006200057FD9058440F551F59F05F3F71F04795A3
:10063000880F97FB991F61F09F3F79F08795089588
:10064000121613061406551FF2CF4695F1DF08C0A7
:10065000161617061806991FF1CF869571056105C4
:1006600008940895E894BB2766277727CB0197F96C
:1006700008950E944C030C94FF020E94F10238F08E
:100680000E94F80220F0952311F00C94E8020C94DB
:10069000EE0211240C9433030E94100370F3959F13
:1006A000C1F3950F50E0551F629FF001729FBB2769
:1006B000F00DB11D639FAA27F00DB11DAA1F649F05
:1006C0006627B00DA11D661F829F2227B00DA11DB8
:1006D000621F739FB00DA11D621F839FA00D611D3E
:1006E000221F749F3327A00D611D231F849F600D5F
:1006F000211D822F762F6A2F11249F5750409AF088
:10070000F1F088234AF0EE0FFF1FBB1F661F771F13
:10071000881F91505040A9F79E3F510580F00C94DE
:10072000E8020C9433035F3FE4F3983ED4F38695DC
:1007300077956795B795F795E7959F5FC1F7FE2B7E
:10074000880F911D9695879597F9089597FB072E29
:1007500016F4009407D077FD09D00E94BA0307FC75
:1007600005D03EF4909581959F4F089570956195C1
:100770007F4F0895AA1BBB1B51E107C0AA1FBB1FD7
:10078000A617B70710F0A61BB70B881F991F5A951D
:10079000A9F780959095BC01CD010895F894FFCFFD
:0A07A0003F065B4F666D7D077F6723
:00000001FF
