:100000000C9434000C943E000C943E000C943E0082
:100010000C943E000C943E000C943E000C943E0068
:100020000C943E000C943E000C943E000C943E0058
:100030000C943E000C943E000C943E000C943E0048
:100040000C943E000C943E000C943E000C943E0038
:100050000C943E000C943E000C943E000C943E0028
:100060000C943E000C943E0011241FBECFEFD8E04C
:10007000DEBFCDBF0E9482000C94A4000C9400004F
:1000800045B121E030E0B90102C0660F771F8A95C3
:10009000E2F7CB01462B45B97FEF21EE34E07150FA
:1000A00020403040E1F700C0000095B180958923E1
:1000B00085B94FEF61EE74E0415060407040E1F768
:1000C00000C00000089585B1816085B985B1826066
:1000D00085B92FEF81EE94E0215080409040E1F708
:1000E00000C0000085B18E7F85B985B18D7F85B94F
:1000F0002FEF81EE94E0215080409040E1F700C066
:100100000000089583E084B9489B05C080E090E03A
:100110000E94400003C085B18E7F85B9499B05C010
:1001200081E090E00E94400003C085B18D7F85B9D9
:100130004A9B03C00E946300E7CF85B18D7F85B9DC
:0C01400085B18E7F85B9E0CFF894FFCF29
:00000001FF
