S01B0000377365676D656E74446973706C6179546573742E7372656369
S11300000C9434000C9449000C9449000C9449005D
S11300100C9449000C9449000C9449000C94490038
S11300200C9449000C9449000C9449000C94490028
S11300300C9449000C9449000C9449000C94490018
S11300400C9449000C9449000C9449000C94490008
S11300500C9449000C9449000C9449000C944900F8
S11300600C9449000C94490011241FBECFEFD8E032
S1130070DEBFCDBF11E0A0E0B1E0E8E3F1E002C0F3
S113008005900D92AA30B107D9F70E944B000C9449
S11300909A000C940000CF93DF93CDB7DEB72A9774
S11300A00FB6F894DEBF0FBECDBF8AE0E0E0F1E00A
S11300B0DE01119601900D928A95E1F721E799E30B
S11300C08FEF8AB98EE184B982E088B98A818BB9CD
S11300D08DEF85B9EFE9FFE03197F1F700C000003B
S11300E08B818BB98BEF85B9EFE9FFE03197F1F79D
S11300F000C000008C818BB987EF85B9EFE9FFE080
S11301003197F1F700C0000031990AC09BB98FEE16
S113011085B9EFE9FFE03197F1F700C00000D6CFD1
S11301202BB98FEE85B9EFE9FFE03197F1F700C005
S10B01300000CCCFF894FFCFCE
S10D01383F065B4F666D7D077F678D
S9030000FC
