S018000064697374616E636550726F6A656374322E73726563B8
S11300000C9434000C9451000C9451000C94510045
S11300100C9451000C9451000C9451000C94510018
S11300200C9451000C9451000C9451000C94510008
S11300300C9451000C94D8010C9451000C94510070
S11300400C9451000C9451000C9451000C945100E8
S11300500C9451000C9451000C9451000C945100D8
S11300600C9451000C94510011241FBECFEFD8E022
S1130070DEBFCDBF11E0A0E0B1E0ECE4F8E002C0E7
S113008005900D92AA30B107D9F721E0AAE0B1E0BA
S113009001C01D92AE30B207E1F70E9499010C94A1
S11300A024040C9400008FEF8AB98EE187B986E0AE
S11300B084B91092800085E08093810081E0809370
S11300C06F007894089585B1826085B985E38A9537
S11300D0F1F7000085B18D7F85B9E1E8F0E080811A
S11300E080648083B59BFECF209186003091870089
S11300F080E286BBE1E8F0E080818F7B808304C0EE
S11301006091860070918700B59BFACF80E286BB30
S113011026173707C0F6621B730B80E090E00E943D
S11301201A0324E43BE84CE85FE30E94A8030E941E
S1130130EB02CB010895CF93DF93FC01EB019C010B
S1130140369527953695279536952795A5ECB0E2F3
S11301500E941504AC01529542954F7045275F707B
S113016045279A01ADECBCEC0E9415049695879541
S113017096958795969587959C01220F331F880F36
S1130180991F880F991F880F991F820F931F9A0137
S1130190281B390B398328839F013695279536957B
S11301A02795ABE7B4E10E941504AC015695479539
S11301B09A01ADECBCEC0E94150496958795969532
S11301C08795969587959C01220F331F880F991F59
S11301D0880F991F880F991F820F931F9A01281B5C
S11301E0390B3B832A839F010E941504AC01569569
S11301F0479556954795569547959A010E9415043B
S11302009695879596958795969587959C01220F47
S1130210331F880F991F880F991F880F991F820F0A
S1130220931F9A01281B390B3D832C83CA01880F25
S1130230991F440F551F440F551F440F551F480F56
S1130240591FE41BF50BFF83EE83DF91CF910895D3
S1130250CF93DF93CDB7DEB72A970FB6F894DEBFFE
S11302600FBECDBF9AE0E0E0F1E0DE01119601900F
S11302700D929A95E1F7E1E0F0E0EC0FFD1FE80F35
S1130280F11D80818BB981E090E002C0880F991F35
S11302906A95E2F7809588B98FED9EE20197F1F7B0
S11302A000C0000088B18FEF88B92A960FB6F89481
S11302B0DEBF0FBECDBFDF91CF9108950F931F9383
S11302C0CF93DF93EC0100E010E012C061E088817D
S11302D00E94280162E08A810E94280163E08C81E7
S11302E00E94280164E08E810E9428010F5F1F4F45
S11302F0023311055CF3DF91CF911F910F910895A3
S11303009B01AC0160E070E284EF95E40E94790205
S11303109B01AC0160E070E080E897E40E940C026D
S113032060930A0170930B0180930C0190930D016B
S11303300895CF93DF93CDB7DEB728970FB6F8941F
S1130340DEBF0FBECDBF0E9453000E9463008C012C
S1130350893C9105B8F48A309105C8F0BC0180E06D
S113036090E00E941A032DEC3CEC4CEC5DE30E94FF
S1130370A8039B01AC0160E070E088EA91E40E946C
S11303800C0209C060E070E080E09FE304C060E01C
S113039070E088EC91E40E948001BE016F5F7F4FA2
S11303A0C8010E949B00CE0101960E945E01CDCF40
S11303B01F920F920FB60F9211242F933F934F93D6
S11303C05F936F937F938F939F93AF93BF93EF93B9
S11303D0FF9360910A0170910B0180910C0190913F
S11303E00D010E94EB02709385006093840095B127
S11303F084E0892785B9FF91EF91BF91AF919F91D7
S11304008F917F916F915F914F913F912F910F90B9
S11304100FBE0F901F9018955058BB27AA270E9413
S113042024020C946E030E94600338F00E94670358
S113043020F039F49F3F19F426F40C945D030EF474
S1130440E095E7FB0C945703E92F0E947F0358F3D0
S1130450BA17620773078407950720F079F4A6F5A5
S11304600C94A1030EF4E0950B2EBA2FA02D0B01D2
S1130470B90190010C01CA01A0011124FF27591BE5
S113048099F0593F50F4503E68F11A16F040A22FEB
S1130490232F342F4427585FF3CF4695379527955C
S11304A0A795F0405395C9F77EF41F16BA0B620B5B
S11304B0730B840BBAF09150A1F0FF0FBB1F661FA2
S11304C0771F881FC2F70EC0BA0F621F731F841FE5
S11304D048F4879577956795B795F7959E3F08F00B
S11304E0B0CF9395880F08F09927EE0F97958795CD
S11304F008950E948D020C946E030E94670358F0C5
S11305000E94600340F029F45F3F29F00C945703E4
S113051051110C94A2030C945D030E947F0368F3B1
S11305209923B1F3552391F3951B550BBB27AA27A8
S113053062177307840738F09F5F5F4F220F331FE2
S1130540441FAA1FA9F335D00E2E3AF0E0E832D0AA
S113055091505040E695001CCAF72BD0FE2F29D0AD
S1130560660F771F881FBB1F261737074807AB077F
S1130570B0E809F0BB0B802DBF01FF2793585F4FF4
S11305803AF09E3F510578F00C9457030C94A20363
S11305905F3FE4F3983ED4F3869577956795B795D6
S11305A0F7959F5FC9F7880F911D9695879597F9E1
S11305B00895E1E0660F771F881FBB1F621773075A
S11305C08407BA0720F0621B730B840BBA0BEE1F6F
S11305D088F7E09508950E94870388F09F5798F064
S11305E0B92F9927B751B0F0E1F0660F771F881F34
S11305F0991F1AF0BA95C9F714C0B13091F00E944E
S1130600A103B1E008950C94A103672F782F8827E4
S1130610B85F39F0B93FCCF3869577956795B39574
S1130620D9F73EF490958095709561957F4F8F4FE3
S11306309F4F0895E89409C097FB3EF490958095E8
S1130640709561957F4F8F4F9F4F9923A9F0F92F94
S113065096E9BB279395F695879577956795B79512
S1130660F111F8CFFAF4BB0F11F460FF1BC06F5FF8
S11306707F4F8F4F9F4F16C0882311F096E911C00A
S1130680772321F09EE8872F762F05C0662371F02B
S113069096E8862F70E060E02AF09A95660F771F3F
S11306A0881FDAF7880F9695879597F9089597F933
S11306B09F6780E870E060E008959FEF80EC089504
S11306C000240A941616170618060906089500242D
S11306D00A9412161306140605060895092E0394A7
S11306E0000C11F4882352F0BB0F40F4BF2B11F41B
S11306F060FF04C06F5F7F4F8F4F9F4F089557FD7A
S11307009058440F551F59F05F3F71F04795880F7B
S113071097FB991F61F09F3F79F087950895121612
S113072013061406551FF2CF4695F1DF08C01616BE
S113073017061806991FF1CF86957105610508946F
S11307400895E894BB2766277727CB0197F9089586
S11307500E94BB030C946E030E94600338F00E9455
S1130760670320F0952311F00C9457030C945D0358
S113077011240C94A2030E947F0370F3959FC1F38C
S1130780950F50E0551F629FF001729FBB27F00D3B
S1130790B11D639FAA27F00DB11DAA1F649F662790
S11307A0B00DA11D661F829F2227B00DA11D621FDF
S11307B0739FB00DA11D621F839FA00D611D221F99
S11307C0749F3327A00D611D231F849F600D211D7D
S11307D0822F762F6A2F11249F5750409AF0F1F000
S11307E088234AF0EE0FFF1FBB1F661F771F881F69
S11307F091505040A9F79E3F510580F00C94570347
S11308000C94A2035F3FE4F3983ED4F38695779566
S11308106795B795F795E7959F5FC1F7FE2B880F0E
S1130820911D9695879597F90895A29FB001B39F5E
S1130830C001A39F700D811D1124911DB29F700DE5
S10F0840811D1124911D0895F894FFCF30
S10D084C3F065B4F666D7D077F6772
S9030000FC
