S010000074656D70546573742E73726563BE
S11300000C9434000C943E000C943E000C943E007E
S11300100C943E000C943E000C943E000C943E0064
S11300200C943E000C943E000C943E000C943E0054
S11300300C943E000C943E000C943E000C943E0044
S11300400C943E000C943E000C943E000C943E0034
S11300500C943E000C943E000C943E000C943E0024
S11300600C943E000C943E0011241FBECFEFD8E048
S1130070DEBFCDBF0E946E000C9402030C940000FE
S113008088E08093C10086E08093C20087E6809375
S1130090C40008959091C00095FFFCCF8093C600E2
S11300A008951F93CF93DF93EC0110E007C0FE0186
S11300B0E80FF91F80810E944A001F5F812F90E0A2
S11300C0FE0101900020E9F73197EC1BFD0B8E1720
S11300D09F0768F3DF91CF911F910895CF93DF932A
S11300E000D000D000D0CDB7DEB717B880EC809335
S11300F07C0087E880937A000E94400081E084B904
S113010085B1816085B92FEF84E39CE02150804064
S11301109040E1F700C0000085B18E7F85B9EAE721
S1130120F0E080818064808380917A0084FFFCCF3A
S1130130809178006091790070E0762F66278B01BA
S1130140082B4AE0BE016F5F7F4FC8010E94CD02B9
S1130150CE0101960E94510080E20E944A00B8013B
S113016080E090E00E94AA012DEC3CEC4CE85FE3B7
S11301700E9438022FE632E143E85FE30E94020165
S11301800E9474016B017C014AE0BE016F5F7F4FE6
S1130190C6010E94CD02CE0101960E94510080E268
S11301A00E944A00C6018E5E92406AE070E00E949E
S11301B0A5028B01075E1F4F4AE0BE016F5F7F4FB0
S11301C0C8010E94CD02CE0101960E9451004AE06E
S11301D0BE016F5F7F4FC8010E94CD02CE01019620
S11301E00E9451008DE00E944A008AE00E944A0069
S11301F02FEF83ED90E3215080409040E1F700C061
S113020000007ECF0E9416010C94FE010E94F701AB
S113021058F00E94F00140F029F45F3F29F00C945B
S1130220E70151110C9432020C94ED010E940F026B
S113023068F39923B1F3552391F3951B550BBB2711
S1130240AA2762177307840738F09F5F5F4F220F56
S1130250331F441FAA1FA9F335D00E2E3AF0E0E84D
S113026032D091505040E695001CCAF72BD0FE2F97
S113027029D0660F771F881FBB1F2617370748072B
S1130280AB07B0E809F0BB0B802DBF01FF279358E3
S11302905F4F3AF09E3F510578F00C94E7010C94BF
S11302A032025F3FE4F3983ED4F3869577956795E1
S11302B0B795F7959F5FC9F7880F911D9695879518
S11302C097F90895E1E0660F771F881FBB1F621737
S11302D073078407BA0720F0621B730B840BBA0BF5
S11302E0EE1F88F7E09508950E947B016894B11190
S11302F00C94320208950E94170288F09F5798F0D8
S1130300B92F9927B751B0F0E1F0660F771F881F16
S1130310991F1AF0BA95C9F714C0B13091F00E9430
S11303203102B1E008950C943102672F782F8827A9
S1130330B85F39F0B93FCCF3869577956795B39557
S1130340D9F73EF490958095709561957F4F8F4FC6
S11303509F4F0895E89409C097FB3EF490958095CB
S1130360709561957F4F8F4F9F4F9923A9F0F92F77
S113037096E9BB279395F695879577956795B795F5
S1130380F111F8CFFAF4BB0F11F460FF1BC06F5FDB
S11303907F4F8F4F9F4F16C0882311F096E911C0ED
S11303A0772321F09EE8872F762F05C0662371F00E
S11303B096E8862F70E060E02AF09A95660F771F22
S11303C0881FDAF7880F9695879597F9089597F916
S11303D09F6780E870E060E008959FEF80EC0895E7
S11303E000240A9416161706180609060895002410
S11303F00A9412161306140605060895092E03948A
S1130400000C11F4882352F0BB0F40F4BF2B11F4FD
S113041060FF04C06F5F7F4F8F4F9F4F089557FD5C
S11304209058440F551F59F05F3F71F04795880F5E
S113043097FB991F61F09F3F79F0879508951216F5
S113044013061406551FF2CF4695F1DF08C01616A1
S113045017061806991FF1CF869571056105089452
S11304600895E894BB2766277727CB0197F9089569
S11304700E944B020C94FE010E94F00138F00E948D
S1130480F70120F0952311F00C94E7010C94ED0191
S113049011240C9432020E940F0270F3959FC1F351
S11304A0950F50E0551F629FF001729FBB27F00D1E
S11304B0B11D639FAA27F00DB11DAA1F649F662773
S11304C0B00DA11D661F829F2227B00DA11D621FC2
S11304D0739FB00DA11D621F839FA00D611D221F7C
S11304E0749F3327A00D611D231F849F600D211D60
S11304F0822F762F6A2F11249F5750409AF0F1F0E3
S113050088234AF0EE0FFF1FBB1F661F771F881F4B
S113051091505040A9F79E3F510580F00C94E7019B
S11305200C9432025F3FE4F3983ED4F386957795BA
S11305306795B795F795E7959F5FC1F7FE2B880FF1
S1130540911D9695879597F9089597FB072E16F4B4
S1130550009407D077FD09D00E94B90207FC05D0AA
S11305603EF4909581959F4F0895709561957F4FC6
S11305700895AA1BBB1B51E107C0AA1FBB1FA617E6
S1130580B70710F0A61BB70B881F991F5A95A9F738
S113059080959095BC01CD010895BB274A3031F474
S11305A0992322F4BDE2909581959F4F0C94D90232
S11305B0BB27FB015527AA27880F991FAA1FA41739
S11305C010F0A41B83955051B9F7A05DAA3308F02D
S11305D0A95DA193009779F7B111B1931192CB0161
S11305E00C94F202DC01FC01672F71917723E1F78F
S11305F0329704C07C916D9370836291AE17BF07EC
S10B0600C8F30895F894FFCF3C
S9030000FC
