S01A000074656D706572617475726550726F6A6563742E7372656385
S11300000C9434000C9449000C9449000C9449005D
S11300100C9449000C9449000C9449000C94490038
S11300200C9449000C9449000C9449000C94490028
S11300300C9449000C9449000C9449000C94490018
S11300400C9449000C9449000C9449000C94490008
S11300500C9449000C9449000C9449000C944900F8
S11300600C9449000C94490011241FBECFEFD8E032
S1130070DEBFCDBF11E0A0E0B1E0EAE1F7E002C0ED
S113008005900D92AA30B107D9F70E94AA000C94EA
S11300908B030C94000080EC80937C0087E88093B1
S11300A07A000895EAE7F0E080818064808380919B
S11300B07A0084FFFCCF08958FEF8AB98EE184B96A
S11300C008950E944B000E945C0082E088B9089564
S11300D0CF93DF93DC01FB0120E037C08081ED0189
S11300E0C80FD11D88818BB98DEF85B98FE99FE049
S11300F00197F1F700C000008181ED01C80FD11D07
S113010088818BB99BB190689BB98BEF85B98FE9D6
S11301109FE00197F1F700C000008281ED01C80F54
S1130120D11D88818BB987EF85B98FE99FE001974D
S1130130F1F700C000004BB98FEE85B98FE99FE05D
S11301400197F1F700C000002F5F243638F2DF91E9
S1130150CF910895CF93DF93CDB7DEB760970FB6F5
S1130160F894DEBF0FBECDBF8AE0E0E0F1E0DE012F
S1130170119601900D928A95E1F70E9461000E9408
S11301805200809178006091790070E0762F6627A4
S1130190682B80E090E00E9468022DEC3CEC4CE877
S11301A05FE30E94F6022FE632E143E85FE30E9438
S11301B0C00120E030E84BE354E40E94530120E006
S11301C030E040E251E40E94C00120E030E048EC1D
S11301D051E40E9454016B017C0120E030E040E2D4
S11301E051E40E94F6020E9432028B0120E030E0CA
S11301F040E151E4C701B6010E94F60220E030E07C
S113020040EA50E40E94C00120E030E040E052E4C3
S11302100E94540120E030E040E251E40E94F602E2
S11302200E9432027B01E4E6F0E0CB01BF010E94B0
S11302306303CB01BF010E9463038B872AE030E094
S1130240C701B9010E946303482FCB01B9010E9481
S113025063038C874D87C801BF010E946303CB01F0
S1130260BF010E9463038E87C801B9010E94630322
S1130270482FCB01B9010E9463038F87488B3199C2
S113028009C049E3BE01625F7F4FCE0101960E941F
S1130290680075CF41E7BE01655F7F4FCE010196CF
S11302A00E9468006CCF5058BB27AA270E946B019C
S11302B00C94BC020E94AE0238F00E94B50220F0F9
S11302C039F49F3F19F426F40C94AB020EF4E09534
S11302D0E7FB0C94A502E92F0E94CD0258F3BA174C
S11302E0620773078407950720F079F4A6F50C9448
S11302F0EF020EF4E0950B2EBA2FA02D0B01B901DD
S113030090010C01CA01A0011124FF27591B99F087
S1130310593F50F4503E68F11A16F040A22F232F93
S1130320342F4427585FF3CF469537952795A795E3
S1130330F0405395C9F77EF41F16BA0B620B730B8A
S1130340840BBAF09150A1F0FF0FBB1F661F771FFB
S1130350881FC2F70EC0BA0F621F731F841F48F4B0
S1130360879577956795B795F7959E3F08F0B0CF39
S11303709395880F08F09927EE0F97958795089520
S11303800E94D4010C94BC020E94B50258F00E9451
S1130390AE0240F029F45F3F29F00C94A5025111FC
S11303A00C94F0020C94AB020E94CD0268F39923E2
S11303B0B1F3552391F3951B550BBB27AA2762175D
S11303C07307840738F09F5F5F4F220F331F441F6A
S11303D0AA1FA9F335D00E2E3AF0E0E832D091509E
S11303E05040E695001CCAF72BD0FE2F29D0660F8B
S11303F0771F881FBB1F261737074807AB07B0E8CE
S113040009F0BB0B802DBF01FF2793585F4F3AF0D3
S11304109E3F510578F00C94A5020C94F0025F3FC6
S1130420E4F3983ED4F3869577956795B795F79559
S11304309F5FC9F7880F911D9695879597F9089541
S1130440E1E0660F771F881FBB1F621773078407DD
S1130450BA0720F0621B730B840BBA0BEE1F88F7EC
S1130460E09508950E9439026894B1110C94F00249
S113047008950E94D50288F09F5798F0B92F9927C4
S1130480B751B0F0E1F0660F771F881F991F1AF07B
S1130490BA95C9F714C0B13091F00E94EF02B1E0EF
S11304A008950C94EF02672F782F8827B85F39F0EE
S11304B0B93FCCF3869577956795B395D9F73EF414
S11304C090958095709561957F4F8F4F9F4F0895BC
S11304D0E89409C097FB3EF49095809570956195DA
S11304E07F4F8F4F9F4F9923A9F0F92F96E9BB2790
S11304F09395F695879577956795B795F111F8CF0C
S1130500FAF4BB0F11F460FF1BC06F5F7F4F8F4F76
S11305109F4F16C0882311F096E911C0772321F06C
S11305209EE8872F762F05C0662371F096E8862F04
S113053070E060E02AF09A95660F771F881FDAF75B
S1130540880F9695879597F9089597F99F6780E89E
S113055070E060E008959FEF80EC089500240A9411
S11305601616170618060906089500240A9412168A
S11305701306140605060895092E0394000C11F4BD
S1130580882352F0BB0F40F4BF2B11F460FF04C06A
S11305906F5F7F4F8F4F9F4F089557FD9058440FC3
S11305A0551F59F05F3F71F04795880F97FB991FCE
S11305B061F09F3F79F0879508951216130614068B
S11305C0551FF2CF4695F1DF08C016161706180618
S11305D0991FF1CF86957105610508940895E894F3
S11305E0BB2766277727CB0197F908950E94090353
S11305F00C94BC020E94AE0238F00E94B50220F0B6
S1130600952311F00C94A5020C94AB0211240C94C4
S1130610F0020E94CD0270F3959FC1F3950F50E054
S1130620551F629FF001729FBB27F00DB11D639FA0
S1130630AA27F00DB11DAA1F649F6627B00DA11D46
S1130640661F829F2227B00DA11D621F739FB00DEC
S1130650A11D621F839FA00D611D221F749F33275C
S1130660A00D611D231F849F600D211D822F762FF5
S11306706A2F11249F5750409AF0F1F088234AF0D2
S1130680EE0FFF1FBB1F661F771F881F915050403E
S1130690A9F79E3F510580F00C94A5020C94F0023A
S11306A05F3FE4F3983ED4F3869577956795B795C5
S11306B0F795E7959F5FC1F7FE2B880F911D9695DF
S11306C0879597F9089597FB072E16F4009407D0A1
S11306D077FD09D00E94770307FC05D03EF490957E
S11306E081959F4F0895709561957F4F0895AA1B3A
S11306F0BB1B51E107C0AA1FBB1FA617B70710F009
S1130700A61BB70B881F991F5A95A9F7809590953A
S10D0710BC01CD010895F894FFCF59
S10D071A3F065B4F666D7D077F67A5
S9030000FC
