S018000070756C6C7570427574746F6E546573742E737265634E
S11300000C9434000C943E000C943E000C943E007E
S11300100C943E000C943E000C943E000C943E0064
S11300200C943E000C943E000C943E000C943E0054
S11300300C943E000C943E000C943E000C943E0044
S11300400C943E000C943E000C943E000C943E0034
S11300500C943E000C943E000C943E000C943E0024
S11300600C943E000C943E0011241FBECFEFD8E048
S1130070DEBFCDBF0E9440000C944E000C940000E3
S113008081E084B982E088B9319904C085B1816086
S113009085B9FACF85B18E7F85B9F6CFF894FFCFB5
S9030000FC
