:100000000C9434000C9449000C9449000C94490061
:100010000C9449000C9449000C9449000C9449003C
:100020000C9449000C9449000C9449000C9449002C
:100030000C9449000C9449000C9449000C9449001C
:100040000C9449000C9449000C9449000C9449000C
:100050000C9449000C9449000C9449000C944900FC
:100060000C9449000C94490011241FBECFEFD8E036
:10007000DEBFCDBF11E0A0E0B1E0EAE3F1E002C0F5
:1000800005900D92A432B107D9F70E945C000C9440
:100090009B000C94000088E08093C10086E0809370
:1000A000C20087E68093C40008959091C00095FF38
:1000B000FCCF8093C6000895CF93DF93CDB7DEB712
:1000C000A3970FB6F894DEBF0FBECDBF0E944B00C2
:1000D00083E2E0E0F1E0DE01119601900D928A9555
:1000E000E1F710E00AC0E1E0F0E0EC0FFD1FE10FE6
:1000F000F11D80810E9455001F5F812F90E0DE017D
:100100001196FD0101900020E9F73197EA1BFB0BE6
:100110008E179F0740F38DE00E9455008AE00E94F1
:1001200055002FEF84E39CE0215080409040E1F7A0
:0A01300000C00000D6CFF894FFCF06
:10013A00574F5720544849532049532041204C4F88
:10014A004E4720535452494E47204F462054455853
:04015A00542100002C
:00000001FF
